{
  "_format": "hh-sol-artifact-1",
  "contractName": "Upload",
  "sourceName": "contracts/Upload.sol",
  "abi": [
    {
      "inputs": [
        {
          "internalType": "address",
          "name": "_user",
          "type": "address"
        },
        {
          "internalType": "string",
          "name": "url",
          "type": "string"
        }
      ],
      "name": "add",
      "outputs": [],
      "stateMutability": "nonpayable",
      "type": "function"
    },
    {
      "inputs": [
        {
          "internalType": "address",
          "name": "user",
          "type": "address"
        }
      ],
      "name": "allow",
      "outputs": [],
      "stateMutability": "nonpayable",
      "type": "function"
    },
    {
      "inputs": [
        {
          "internalType": "address",
          "name": "user",
          "type": "address"
        }
      ],
      "name": "disallow",
      "outputs": [],
      "stateMutability": "nonpayable",
      "type": "function"
    },
    {
      "inputs": [],
      "name": "shareAccess",
      "outputs": [
        {
          "components": [
            {
              "internalType": "address",
              "name": "user",
              "type": "address"
            },
            {
              "internalType": "bool",
              "name": "access",
              "type": "bool"
            }
          ],
          "internalType": "struct Upload.Access[]",
          "name": "",
          "type": "tuple[]"
        }
      ],
      "stateMutability": "view",
      "type": "function"
    }
  ],
  "bytecode": "0x608060405234801561001057600080fd5b50610fe3806100206000396000f3fe608060405234801561001057600080fd5b506004361061004c5760003560e01c806336d6da5514610051578063a9ed9cb81461006d578063bc8bef8114610089578063ff9913e8146100a7575b600080fd5b61006b60048036038101906100669190610a61565b6100c3565b005b61008760048036038101906100829190610abd565b610138565b005b61009161035a565b60405161009e9190610bf2565b60405180910390f35b6100c160048036038101906100bc9190610abd565b610463565b005b6000808373ffffffffffffffffffffffffffffffffffffffff1673ffffffffffffffffffffffffffffffffffffffff168152602001908152602001600020819080600181540180825580915050600190039060005260206000200160009091909190915090816101339190610e35565b505050565b6000600160003373ffffffffffffffffffffffffffffffffffffffff1673ffffffffffffffffffffffffffffffffffffffff16815260200190815260200160002060008373ffffffffffffffffffffffffffffffffffffffff1673ffffffffffffffffffffffffffffffffffffffff16815260200190815260200160002060006101000a81548160ff02191690831515021790555060005b600260003373ffffffffffffffffffffffffffffffffffffffff1673ffffffffffffffffffffffffffffffffffffffff16815260200190815260200160002080549050811015610356578173ffffffffffffffffffffffffffffffffffffffff16600260003373ffffffffffffffffffffffffffffffffffffffff1673ffffffffffffffffffffffffffffffffffffffff168152602001908152602001600020828154811061028257610281610f07565b5b9060005260206000200160000160009054906101000a900473ffffffffffffffffffffffffffffffffffffffff1673ffffffffffffffffffffffffffffffffffffffff1603610343576000600260003373ffffffffffffffffffffffffffffffffffffffff1673ffffffffffffffffffffffffffffffffffffffff168152602001908152602001600020828154811061031e5761031d610f07565b5b9060005260206000200160000160146101000a81548160ff0219169083151502179055505b808061034e90610f65565b9150506101d0565b5050565b6060600260003373ffffffffffffffffffffffffffffffffffffffff1673ffffffffffffffffffffffffffffffffffffffff168152602001908152602001600020805480602002602001604051908101604052809291908181526020016000905b8282101561045a578382906000526020600020016040518060400160405290816000820160009054906101000a900473ffffffffffffffffffffffffffffffffffffffff1673ffffffffffffffffffffffffffffffffffffffff1673ffffffffffffffffffffffffffffffffffffffff1681526020016000820160149054906101000a900460ff161515151581525050815260200190600101906103bb565b50505050905090565b60018060003373ffffffffffffffffffffffffffffffffffffffff1673ffffffffffffffffffffffffffffffffffffffff16815260200190815260200160002060008373ffffffffffffffffffffffffffffffffffffffff1673ffffffffffffffffffffffffffffffffffffffff16815260200190815260200160002060006101000a81548160ff021916908315150217905550600360003373ffffffffffffffffffffffffffffffffffffffff1673ffffffffffffffffffffffffffffffffffffffff16815260200190815260200160002060008273ffffffffffffffffffffffffffffffffffffffff1673ffffffffffffffffffffffffffffffffffffffff16815260200190815260200160002060009054906101000a900460ff16156107155760005b600260003373ffffffffffffffffffffffffffffffffffffffff1673ffffffffffffffffffffffffffffffffffffffff1681526020019081526020016000208054905081101561070f578173ffffffffffffffffffffffffffffffffffffffff16600260003373ffffffffffffffffffffffffffffffffffffffff1673ffffffffffffffffffffffffffffffffffffffff168152602001908152602001600020828154811061063b5761063a610f07565b5b9060005260206000200160000160009054906101000a900473ffffffffffffffffffffffffffffffffffffffff1673ffffffffffffffffffffffffffffffffffffffff16036106fc576001600260003373ffffffffffffffffffffffffffffffffffffffff1673ffffffffffffffffffffffffffffffffffffffff16815260200190815260200160002082815481106106d7576106d6610f07565b5b9060005260206000200160000160146101000a81548160ff0219169083151502179055505b808061070790610f65565b915050610589565b506108a6565b600260003373ffffffffffffffffffffffffffffffffffffffff1673ffffffffffffffffffffffffffffffffffffffff16815260200190815260200160002060405180604001604052808373ffffffffffffffffffffffffffffffffffffffff168152602001600115158152509080600181540180825580915050600190039060005260206000200160009091909190915060008201518160000160006101000a81548173ffffffffffffffffffffffffffffffffffffffff021916908373ffffffffffffffffffffffffffffffffffffffff16021790555060208201518160000160146101000a81548160ff02191690831515021790555050506001600360003373ffffffffffffffffffffffffffffffffffffffff1673ffffffffffffffffffffffffffffffffffffffff16815260200190815260200160002060008373ffffffffffffffffffffffffffffffffffffffff1673ffffffffffffffffffffffffffffffffffffffff16815260200190815260200160002060006101000a81548160ff0219169083151502179055505b50565b6000604051905090565b600080fd5b600080fd5b600073ffffffffffffffffffffffffffffffffffffffff82169050919050565b60006108e8826108bd565b9050919050565b6108f8816108dd565b811461090357600080fd5b50565b600081359050610915816108ef565b92915050565b600080fd5b600080fd5b6000601f19601f8301169050919050565b7f4e487b7100000000000000000000000000000000000000000000000000000000600052604160045260246000fd5b61096e82610925565b810181811067ffffffffffffffff8211171561098d5761098c610936565b5b80604052505050565b60006109a06108a9565b90506109ac8282610965565b919050565b600067ffffffffffffffff8211156109cc576109cb610936565b5b6109d582610925565b9050602081019050919050565b82818337600083830152505050565b6000610a046109ff846109b1565b610996565b905082815260208101848484011115610a2057610a1f610920565b5b610a2b8482856109e2565b509392505050565b600082601f830112610a4857610a4761091b565b5b8135610a588482602086016109f1565b91505092915050565b60008060408385031215610a7857610a776108b3565b5b6000610a8685828601610906565b925050602083013567ffffffffffffffff811115610aa757610aa66108b8565b5b610ab385828601610a33565b9150509250929050565b600060208284031215610ad357610ad26108b3565b5b6000610ae184828501610906565b91505092915050565b600081519050919050565b600082825260208201905092915050565b6000819050602082019050919050565b610b1f816108dd565b82525050565b60008115159050919050565b610b3a81610b25565b82525050565b604082016000820151610b566000850182610b16565b506020820151610b696020850182610b31565b50505050565b6000610b7b8383610b40565b60408301905092915050565b6000602082019050919050565b6000610b9f82610aea565b610ba98185610af5565b9350610bb483610b06565b8060005b83811015610be5578151610bcc8882610b6f565b9750610bd783610b87565b925050600181019050610bb8565b5085935050505092915050565b60006020820190508181036000830152610c0c8184610b94565b905092915050565b600081519050919050565b7f4e487b7100000000000000000000000000000000000000000000000000000000600052602260045260246000fd5b60006002820490506001821680610c6657607f821691505b602082108103610c7957610c78610c1f565b5b50919050565b60008190508160005260206000209050919050565b60006020601f8301049050919050565b600082821b905092915050565b600060088302610ce17fffffffffffffffffffffffffffffffffffffffffffffffffffffffffffffffff82610ca4565b610ceb8683610ca4565b95508019841693508086168417925050509392505050565b6000819050919050565b6000819050919050565b6000610d32610d2d610d2884610d03565b610d0d565b610d03565b9050919050565b6000819050919050565b610d4c83610d17565b610d60610d5882610d39565b848454610cb1565b825550505050565b600090565b610d75610d68565b610d80818484610d43565b505050565b5b81811015610da457610d99600082610d6d565b600181019050610d86565b5050565b601f821115610de957610dba81610c7f565b610dc384610c94565b81016020851015610dd2578190505b610de6610dde85610c94565b830182610d85565b50505b505050565b600082821c905092915050565b6000610e0c60001984600802610dee565b1980831691505092915050565b6000610e258383610dfb565b9150826002028217905092915050565b610e3e82610c14565b67ffffffffffffffff811115610e5757610e56610936565b5b610e618254610c4e565b610e6c828285610da8565b600060209050601f831160018114610e9f5760008415610e8d578287015190505b610e978582610e19565b865550610eff565b601f198416610ead86610c7f565b60005b82811015610ed557848901518255600182019150602085019450602081019050610eb0565b86831015610ef25784890151610eee601f891682610dfb565b8355505b6001600288020188555050505b505050505050565b7f4e487b7100000000000000000000000000000000000000000000000000000000600052603260045260246000fd5b7f4e487b7100000000000000000000000000000000000000000000000000000000600052601160045260246000fd5b6000610f7082610d03565b91507fffffffffffffffffffffffffffffffffffffffffffffffffffffffffffffffff8203610fa257610fa1610f36565b5b60018201905091905056fea26469706673582212205751a60a5b2c79c6bb359801597df65363fcb1daf2577a706af2ed3063c93e1764736f6c63430008110033",
  "linkReferences": {},
  "deployedLinkReferences": {}
}